{
  "_format": "hh-sol-artifact-1",
  "contractName": "Staking",
  "sourceName": "contracts/Staking.sol",
  "abi": [
    {
      "inputs": [
        {
          "internalType": "address",
          "name": "tokenAddress",
          "type": "address"
        }
      ],
      "stateMutability": "nonpayable",
      "type": "constructor"
    },
    {
      "inputs": [],
      "name": "ReentrancyGuardReentrantCall",
      "type": "error"
    },
    {
      "anonymous": false,
      "inputs": [
        {
          "indexed": true,
          "internalType": "address",
          "name": "user",
          "type": "address"
        },
        {
          "indexed": false,
          "internalType": "uint256",
          "name": "amount",
          "type": "uint256"
        }
      ],
      "name": "Claimed",
      "type": "event"
    },
    {
      "anonymous": false,
      "inputs": [
        {
          "indexed": true,
          "internalType": "address",
          "name": "user",
          "type": "address"
        },
        {
          "indexed": false,
          "internalType": "uint256",
          "name": "amount",
          "type": "uint256"
        }
      ],
      "name": "Staked",
      "type": "event"
    },
    {
      "anonymous": false,
      "inputs": [
        {
          "indexed": true,
          "internalType": "address",
          "name": "user",
          "type": "address"
        },
        {
          "indexed": false,
          "internalType": "uint256",
          "name": "amount",
          "type": "uint256"
        }
      ],
      "name": "Unstaked",
      "type": "event"
    },
    {
      "inputs": [],
      "name": "REWARD_RATE",
      "outputs": [
        {
          "internalType": "uint256",
          "name": "",
          "type": "uint256"
        }
      ],
      "stateMutability": "view",
      "type": "function"
    },
    {
      "inputs": [],
      "name": "claimRewards",
      "outputs": [],
      "stateMutability": "nonpayable",
      "type": "function"
    },
    {
      "inputs": [],
      "name": "lastUpdateTime",
      "outputs": [
        {
          "internalType": "uint256",
          "name": "",
          "type": "uint256"
        }
      ],
      "stateMutability": "view",
      "type": "function"
    },
    {
      "inputs": [
        {
          "internalType": "address",
          "name": "account",
          "type": "address"
        }
      ],
      "name": "pendingRewards",
      "outputs": [
        {
          "internalType": "uint256",
          "name": "",
          "type": "uint256"
        }
      ],
      "stateMutability": "view",
      "type": "function"
    },
    {
      "inputs": [],
      "name": "rewardPerToken",
      "outputs": [
        {
          "internalType": "uint256",
          "name": "",
          "type": "uint256"
        }
      ],
      "stateMutability": "view",
      "type": "function"
    },
    {
      "inputs": [],
      "name": "rewardPerTokenStored",
      "outputs": [
        {
          "internalType": "uint256",
          "name": "",
          "type": "uint256"
        }
      ],
      "stateMutability": "view",
      "type": "function"
    },
    {
      "inputs": [
        {
          "internalType": "address",
          "name": "",
          "type": "address"
        }
      ],
      "name": "rewards",
      "outputs": [
        {
          "internalType": "uint256",
          "name": "",
          "type": "uint256"
        }
      ],
      "stateMutability": "view",
      "type": "function"
    },
    {
      "inputs": [
        {
          "internalType": "uint256",
          "name": "amount",
          "type": "uint256"
        }
      ],
      "name": "stake",
      "outputs": [],
      "stateMutability": "nonpayable",
      "type": "function"
    },
    {
      "inputs": [
        {
          "internalType": "address",
          "name": "account",
          "type": "address"
        }
      ],
      "name": "stakedBalance",
      "outputs": [
        {
          "internalType": "uint256",
          "name": "",
          "type": "uint256"
        }
      ],
      "stateMutability": "view",
      "type": "function"
    },
    {
      "inputs": [],
      "name": "token",
      "outputs": [
        {
          "internalType": "contract StakeToken",
          "name": "",
          "type": "address"
        }
      ],
      "stateMutability": "view",
      "type": "function"
    },
    {
      "inputs": [],
      "name": "totalStaked",
      "outputs": [
        {
          "internalType": "uint256",
          "name": "",
          "type": "uint256"
        }
      ],
      "stateMutability": "view",
      "type": "function"
    },
    {
      "inputs": [
        {
          "internalType": "uint256",
          "name": "amount",
          "type": "uint256"
        }
      ],
      "name": "unstake",
      "outputs": [],
      "stateMutability": "nonpayable",
      "type": "function"
    },
    {
      "inputs": [
        {
          "internalType": "address",
          "name": "",
          "type": "address"
        }
      ],
      "name": "userRewardPerTokenPaid",
      "outputs": [
        {
          "internalType": "uint256",
          "name": "",
          "type": "uint256"
        }
      ],
      "stateMutability": "view",
      "type": "function"
    }
  ],
  "bytecode": "0x60a060405234801561001057600080fd5b50604051610aea380380610aea83398101604081905261002f916100c2565b60017f9b779b17422d0df92223018b32b4d1fa46e071723d6817e2486d003becc55f00556001600160a01b0381166100ad5760405162461bcd60e51b815260206004820152601360248201527f5374616b696e673a207a65726f20746f6b656e00000000000000000000000000604482015260640160405180910390fd5b6001600160a01b0316608052426002556100f2565b6000602082840312156100d457600080fd5b81516001600160a01b03811681146100eb57600080fd5b9392505050565b6080516109c8610122600039600081816101c70152818161035901528181610523015261068c01526109c86000f3fe608060405234801561001057600080fd5b50600436106100cf5760003560e01c8063817b1cd21161008c578063c8f33c9111610066578063c8f33c91146101a8578063cd3daf9d146101b1578063df136d65146101b9578063fc0c546a146101c257600080fd5b8063817b1cd21461016c5780638b87634714610175578063a694fc3a1461019557600080fd5b80630700037d146100d45780632e17de781461010757806331d7a2621461011c578063372500ab1461012f5780635997bb37146101375780636021726714610143575b600080fd5b6100f46100e2366004610899565b60056020526000908152604090205481565b6040519081526020015b60405180910390f35b61011a6101153660046108c2565b610201565b005b6100f461012a366004610899565b610434565b61011a61044d565b6100f464e8d4a5100081565b6100f4610151366004610899565b6001600160a01b031660009081526003602052604090205490565b6100f460005481565b6100f4610183366004610899565b60046020526000908152604090205481565b61011a6101a33660046108c2565b6105a1565b6100f460025481565b6100f461074d565b6100f460015481565b6101e97f000000000000000000000000000000000000000000000000000000000000000081565b6040516001600160a01b0390911681526020016100fe565b61020961077f565b600081116102555760405162461bcd60e51b815260206004820152601460248201527314dd185ada5b99ce881e995c9bc8185b5bdd5b9d60621b60448201526064015b60405180910390fd5b336000908152600360205260409020548111156102c35760405162461bcd60e51b815260206004820152602660248201527f5374616b696e673a20616d6f756e742065786365656473207374616b65642062604482015265616c616e636560d01b606482015260840161024c565b6102cc3361079b565b33600090815260036020526040812080548392906102eb9084906108f1565b925050819055508060008082825461030391906108f1565b909155505060405181815233907f0f5bb82176feb1b5e747e28471aa92156a04d9f3ab9f45f28e2d704232b93f759060200160405180910390a260405163a9059cbb60e01b8152336004820152602481018290527f00000000000000000000000000000000000000000000000000000000000000006001600160a01b03169063a9059cbb906044016020604051808303816000875af11580156103aa573d6000803e3d6000fd5b505050506040513d601f19601f820116820180604052508101906103ce9190610904565b61041a5760405162461bcd60e51b815260206004820152601860248201527f5374616b696e673a207472616e73666572206661696c65640000000000000000604482015260640161024c565b610431600160008051602061097383398151915255565b50565b60006104478261044261074d565b6107e5565b92915050565b61045561077f565b61045e3361079b565b33600090815260056020526040902054806104bb5760405162461bcd60e51b815260206004820152601c60248201527f5374616b696e673a206e6f207265776172647320746f20636c61696d00000000604482015260640161024c565b3360008181526005602052604080822091909155517fd8138f8a3f377c5259ca548e70e4c2de94f129f5a11036a15b69513cba2b426a906104ff9084815260200190565b60405180910390a26040516335106f4960e11b8152336004820152602481018290527f00000000000000000000000000000000000000000000000000000000000000006001600160a01b031690636a20de9290604401600060405180830381600087803b15801561056f57600080fd5b505af1158015610583573d6000803e3d6000fd5b505050505061059f600160008051602061097383398151915255565b565b6105a961077f565b600081116105f05760405162461bcd60e51b815260206004820152601460248201527314dd185ada5b99ce881e995c9bc8185b5bdd5b9d60621b604482015260640161024c565b6105f93361079b565b3360009081526003602052604081208054839290610618908490610926565b92505081905550806000808282546106309190610926565b909155505060405181815233907f9e71bc8eea02a63969f509818f2dafb9254532904319f9dbda79b67bd34a5f3d9060200160405180910390a26040516323b872dd60e01b8152336004820152306024820152604481018290527f00000000000000000000000000000000000000000000000000000000000000006001600160a01b0316906323b872dd906064016020604051808303816000875af11580156106dd573d6000803e3d6000fd5b505050506040513d601f19601f820116820180604052508101906107019190610904565b61041a5760405162461bcd60e51b815260206004820152601c60248201527f5374616b696e673a207472616e7366657246726f6d206661696c656400000000604482015260640161024c565b600064e8d4a510006002544261076391906108f1565b61076d9190610939565b60015461077a9190610926565b905090565b610787610869565b600260008051602061097383398151915255565b6107a361074d565b6001819055426002556107b79082906107e5565b6001600160a01b03909116600090815260056020908152604080832093909355600154600490915291902055565b6001600160a01b038216600090815260046020526040812054670de0b6b3a76400009061081290846108f1565b6001600160a01b0385166000908152600360205260409020546108359190610939565b61083f9190610950565b6001600160a01b0384166000908152600560205260409020546108629190610926565b9392505050565b6000805160206109738339815191525460020361059f57604051633ee5aeb560e01b815260040160405180910390fd5b6000602082840312156108ab57600080fd5b81356001600160a01b038116811461086257600080fd5b6000602082840312156108d457600080fd5b5035919050565b634e487b7160e01b600052601160045260246000fd5b81810381811115610447576104476108db565b60006020828403121561091657600080fd5b8151801515811461086257600080fd5b80820180821115610447576104476108db565b8082028115828204841417610447576104476108db565b60008261096d57634e487b7160e01b600052601260045260246000fd5b50049056fe9b779b17422d0df92223018b32b4d1fa46e071723d6817e2486d003becc55f00a2646970667358221220fd4cbfa3abf5cba73afb92d68cf952c2b32a3709ea8eafee23f9fc2325e639e464736f6c63430008180033",
  "linkReferences": {},
  "deployedLinkReferences": {}
}