{
  "_format": "hh-sol-artifact-1",
  "contractName": "StakeToken",
  "sourceName": "contracts/StakeToken.sol",
  "abi": [
    {
      "inputs": [],
      "stateMutability": "nonpayable",
      "type": "constructor"
    },
    {
      "inputs": [
        {
          "internalType": "address",
          "name": "spender",
          "type": "address"
        },
        {
          "internalType": "uint256",
          "name": "allowance",
          "type": "uint256"
        },
        {
          "internalType": "uint256",
          "name": "needed",
          "type": "uint256"
        }
      ],
      "name": "ERC20InsufficientAllowance",
      "type": "error"
    },
    {
      "inputs": [
        {
          "internalType": "address",
          "name": "sender",
          "type": "address"
        },
        {
          "internalType": "uint256",
          "name": "balance",
          "type": "uint256"
        },
        {
          "internalType": "uint256",
          "name": "needed",
          "type": "uint256"
        }
      ],
      "name": "ERC20InsufficientBalance",
      "type": "error"
    },
    {
      "inputs": [
        {
          "internalType": "address",
          "name": "approver",
          "type": "address"
        }
      ],
      "name": "ERC20InvalidApprover",
      "type": "error"
    },
    {
      "inputs": [
        {
          "internalType": "address",
          "name": "receiver",
          "type": "address"
        }
      ],
      "name": "ERC20InvalidReceiver",
      "type": "error"
    },
    {
      "inputs": [
        {
          "internalType": "address",
          "name": "sender",
          "type": "address"
        }
      ],
      "name": "ERC20InvalidSender",
      "type": "error"
    },
    {
      "inputs": [
        {
          "internalType": "address",
          "name": "spender",
          "type": "address"
        }
      ],
      "name": "ERC20InvalidSpender",
      "type": "error"
    },
    {
      "inputs": [
        {
          "internalType": "address",
          "name": "owner",
          "type": "address"
        }
      ],
      "name": "OwnableInvalidOwner",
      "type": "error"
    },
    {
      "inputs": [
        {
          "internalType": "address",
          "name": "account",
          "type": "address"
        }
      ],
      "name": "OwnableUnauthorizedAccount",
      "type": "error"
    },
    {
      "anonymous": false,
      "inputs": [
        {
          "indexed": true,
          "internalType": "address",
          "name": "owner",
          "type": "address"
        },
        {
          "indexed": true,
          "internalType": "address",
          "name": "spender",
          "type": "address"
        },
        {
          "indexed": false,
          "internalType": "uint256",
          "name": "value",
          "type": "uint256"
        }
      ],
      "name": "Approval",
      "type": "event"
    },
    {
      "anonymous": false,
      "inputs": [
        {
          "indexed": true,
          "internalType": "address",
          "name": "previousOwner",
          "type": "address"
        },
        {
          "indexed": true,
          "internalType": "address",
          "name": "newOwner",
          "type": "address"
        }
      ],
      "name": "OwnershipTransferred",
      "type": "event"
    },
    {
      "anonymous": false,
      "inputs": [
        {
          "indexed": true,
          "internalType": "address",
          "name": "from",
          "type": "address"
        },
        {
          "indexed": true,
          "internalType": "address",
          "name": "to",
          "type": "address"
        },
        {
          "indexed": false,
          "internalType": "uint256",
          "name": "value",
          "type": "uint256"
        }
      ],
      "name": "Transfer",
      "type": "event"
    },
    {
      "inputs": [],
      "name": "CLAIM_AMOUNT",
      "outputs": [
        {
          "internalType": "uint256",
          "name": "",
          "type": "uint256"
        }
      ],
      "stateMutability": "view",
      "type": "function"
    },
    {
      "inputs": [],
      "name": "CLAIM_COOLDOWN",
      "outputs": [
        {
          "internalType": "uint256",
          "name": "",
          "type": "uint256"
        }
      ],
      "stateMutability": "view",
      "type": "function"
    },
    {
      "inputs": [
        {
          "internalType": "address",
          "name": "owner",
          "type": "address"
        },
        {
          "internalType": "address",
          "name": "spender",
          "type": "address"
        }
      ],
      "name": "allowance",
      "outputs": [
        {
          "internalType": "uint256",
          "name": "",
          "type": "uint256"
        }
      ],
      "stateMutability": "view",
      "type": "function"
    },
    {
      "inputs": [
        {
          "internalType": "address",
          "name": "spender",
          "type": "address"
        },
        {
          "internalType": "uint256",
          "name": "value",
          "type": "uint256"
        }
      ],
      "name": "approve",
      "outputs": [
        {
          "internalType": "bool",
          "name": "",
          "type": "bool"
        }
      ],
      "stateMutability": "nonpayable",
      "type": "function"
    },
    {
      "inputs": [
        {
          "internalType": "address",
          "name": "account",
          "type": "address"
        }
      ],
      "name": "balanceOf",
      "outputs": [
        {
          "internalType": "uint256",
          "name": "",
          "type": "uint256"
        }
      ],
      "stateMutability": "view",
      "type": "function"
    },
    {
      "inputs": [],
      "name": "claim",
      "outputs": [],
      "stateMutability": "nonpayable",
      "type": "function"
    },
    {
      "inputs": [],
      "name": "decimals",
      "outputs": [
        {
          "internalType": "uint8",
          "name": "",
          "type": "uint8"
        }
      ],
      "stateMutability": "view",
      "type": "function"
    },
    {
      "inputs": [
        {
          "internalType": "address",
          "name": "",
          "type": "address"
        }
      ],
      "name": "lastClaimAt",
      "outputs": [
        {
          "internalType": "uint256",
          "name": "",
          "type": "uint256"
        }
      ],
      "stateMutability": "view",
      "type": "function"
    },
    {
      "inputs": [
        {
          "internalType": "address",
          "name": "to",
          "type": "address"
        },
        {
          "internalType": "uint256",
          "name": "amount",
          "type": "uint256"
        }
      ],
      "name": "mintRewards",
      "outputs": [],
      "stateMutability": "nonpayable",
      "type": "function"
    },
    {
      "inputs": [],
      "name": "minter",
      "outputs": [
        {
          "internalType": "address",
          "name": "",
          "type": "address"
        }
      ],
      "stateMutability": "view",
      "type": "function"
    },
    {
      "inputs": [],
      "name": "name",
      "outputs": [
        {
          "internalType": "string",
          "name": "",
          "type": "string"
        }
      ],
      "stateMutability": "view",
      "type": "function"
    },
    {
      "inputs": [
        {
          "internalType": "address",
          "name": "account",
          "type": "address"
        }
      ],
      "name": "nextClaimTime",
      "outputs": [
        {
          "internalType": "uint256",
          "name": "",
          "type": "uint256"
        }
      ],
      "stateMutability": "view",
      "type": "function"
    },
    {
      "inputs": [],
      "name": "owner",
      "outputs": [
        {
          "internalType": "address",
          "name": "",
          "type": "address"
        }
      ],
      "stateMutability": "view",
      "type": "function"
    },
    {
      "inputs": [],
      "name": "renounceOwnership",
      "outputs": [],
      "stateMutability": "nonpayable",
      "type": "function"
    },
    {
      "inputs": [
        {
          "internalType": "address",
          "name": "newMinter",
          "type": "address"
        }
      ],
      "name": "setMinter",
      "outputs": [],
      "stateMutability": "nonpayable",
      "type": "function"
    },
    {
      "inputs": [],
      "name": "symbol",
      "outputs": [
        {
          "internalType": "string",
          "name": "",
          "type": "string"
        }
      ],
      "stateMutability": "view",
      "type": "function"
    },
    {
      "inputs": [],
      "name": "totalSupply",
      "outputs": [
        {
          "internalType": "uint256",
          "name": "",
          "type": "uint256"
        }
      ],
      "stateMutability": "view",
      "type": "function"
    },
    {
      "inputs": [
        {
          "internalType": "address",
          "name": "to",
          "type": "address"
        },
        {
          "internalType": "uint256",
          "name": "value",
          "type": "uint256"
        }
      ],
      "name": "transfer",
      "outputs": [
        {
          "internalType": "bool",
          "name": "",
          "type": "bool"
        }
      ],
      "stateMutability": "nonpayable",
      "type": "function"
    },
    {
      "inputs": [
        {
          "internalType": "address",
          "name": "from",
          "type": "address"
        },
        {
          "internalType": "address",
          "name": "to",
          "type": "address"
        },
        {
          "internalType": "uint256",
          "name": "value",
          "type": "uint256"
        }
      ],
      "name": "transferFrom",
      "outputs": [
        {
          "internalType": "bool",
          "name": "",
          "type": "bool"
        }
      ],
      "stateMutability": "nonpayable",
      "type": "function"
    },
    {
      "inputs": [
        {
          "internalType": "address",
          "name": "newOwner",
          "type": "address"
        }
      ],
      "name": "transferOwnership",
      "outputs": [],
      "stateMutability": "nonpayable",
      "type": "function"
    }
  ],
  "bytecode": "0x60806040523480156200001157600080fd5b50336040518060400160405280600a81526020016929ba30b5b2aa37b5b2b760b11b8152506040518060400160405280600381526020016253544b60e81b8152508160039081620000639190620001af565b506004620000728282620001af565b5050506001600160a01b038116620000a457604051631e4fbdf760e01b81526000600482015260240160405180910390fd5b620000af81620000b6565b506200027b565b600580546001600160a01b038381166001600160a01b0319831681179093556040519116919082907f8be0079c531659141344cd1fd0a4f28419497f9722a3daafe3b4186f6b6457e090600090a35050565b634e487b7160e01b600052604160045260246000fd5b600181811c908216806200013357607f821691505b6020821081036200015457634e487b7160e01b600052602260045260246000fd5b50919050565b601f821115620001aa576000816000526020600020601f850160051c81016020861015620001855750805b601f850160051c820191505b81811015620001a65782815560010162000191565b5050505b505050565b81516001600160401b03811115620001cb57620001cb62000108565b620001e381620001dc84546200011e565b846200015a565b602080601f8311600181146200021b5760008415620002025750858301515b600019600386901b1c1916600185901b178555620001a6565b600085815260208120601f198616915b828110156200024c578886015182559484019460019091019084016200022b565b50858210156200026b5787850151600019600388901b60f8161c191681555b5050505050600190811b01905550565b610bb8806200028b6000396000f3fe608060405234801561001057600080fd5b506004361061012c5760003560e01c80636a20de92116100ad57806395d89b411161007157806395d89b411461027c578063a9059cbb14610284578063dd62ed3e14610297578063f2fde38b146102d0578063fca3b5aa146102e357600080fd5b80636a20de921461021457806370a082311461022757806370f23da714610250578063715018a6146102635780638da5cb5b1461026b57600080fd5b806323b872dd116100f457806323b872dd146101cf578063270ef385146101e2578063313ce567146101f257806337c909ec146102015780634e71d92d1461020a57600080fd5b806303822d3b1461013157806306fdde03146101645780630754617214610179578063095ea7b3146101a457806318160ddd146101c7575b600080fd5b61015161013f366004610a24565b60066020526000908152604090205481565b6040519081526020015b60405180910390f35b61016c6102f6565b60405161015b9190610a3f565b60075461018c906001600160a01b031681565b6040516001600160a01b03909116815260200161015b565b6101b76101b2366004610a8e565b610388565b604051901515815260200161015b565b600254610151565b6101b76101dd366004610ab8565b6103a2565b61015168056bc75e2d6310000081565b6040516012815260200161015b565b61015161546081565b6102126103c6565b005b610212610222366004610a8e565b610471565b610151610235366004610a24565b6001600160a01b031660009081526020819052604090205490565b61015161025e366004610a24565b6104e5565b61021261051f565b6005546001600160a01b031661018c565b61016c610533565b6101b7610292366004610a8e565b610542565b6101516102a5366004610af4565b6001600160a01b03918216600090815260016020908152604080832093909416825291909152205490565b6102126102de366004610a24565b610550565b6102126102f1366004610a24565b61058b565b60606003805461030590610b27565b80601f016020809104026020016040519081016040528092919081815260200182805461033190610b27565b801561037e5780601f106103535761010080835404028352916020019161037e565b820191906000526020600020905b81548152906001019060200180831161036157829003601f168201915b5050505050905090565b600033610396818585610664565b60019150505b92915050565b6000336103b0858285610676565b6103bb8585856106f5565b506001949350505050565b336000908152600660205260409020548015806103ee57506103ea61546082610b61565b4210155b6104495760405162461bcd60e51b815260206004820152602160248201527f5374616b65546f6b656e3a20636c61696d20636f6f6c646f776e2061637469766044820152606560f81b60648201526084015b60405180910390fd5b33600081815260066020526040902042905561046e9068056bc75e2d63100000610754565b50565b6007546001600160a01b031633146104d75760405162461bcd60e51b8152602060048201526024808201527f5374616b65546f6b656e3a2063616c6c6572206973206e6f7420746865206d69604482015263373a32b960e11b6064820152608401610440565b6104e18282610754565b5050565b6001600160a01b03811660009081526006602052604081205480156105155761051061546082610b61565b610518565b60005b9392505050565b61052761078a565b61053160006107b7565b565b60606004805461030590610b27565b6000336103968185856106f5565b61055861078a565b6001600160a01b03811661058257604051631e4fbdf760e01b815260006004820152602401610440565b61046e816107b7565b61059361078a565b6007546001600160a01b0316156105ec5760405162461bcd60e51b815260206004820152601e60248201527f5374616b65546f6b656e3a206d696e74657220616c72656164792073657400006044820152606401610440565b6001600160a01b0381166106425760405162461bcd60e51b815260206004820152601760248201527f5374616b65546f6b656e3a207a65726f206d696e7465720000000000000000006044820152606401610440565b600780546001600160a01b0319166001600160a01b0392909216919091179055565b6106718383836001610809565b505050565b6001600160a01b038381166000908152600160209081526040808320938616835292905220546000198110156106ef57818110156106e057604051637dc7a0d960e11b81526001600160a01b03841660048201526024810182905260448101839052606401610440565b6106ef84848484036000610809565b50505050565b6001600160a01b03831661071f57604051634b637e8f60e11b815260006004820152602401610440565b6001600160a01b0382166107495760405163ec442f0560e01b815260006004820152602401610440565b6106718383836108de565b6001600160a01b03821661077e5760405163ec442f0560e01b815260006004820152602401610440565b6104e1600083836108de565b6005546001600160a01b031633146105315760405163118cdaa760e01b8152336004820152602401610440565b600580546001600160a01b038381166001600160a01b0319831681179093556040519116919082907f8be0079c531659141344cd1fd0a4f28419497f9722a3daafe3b4186f6b6457e090600090a35050565b6001600160a01b0384166108335760405163e602df0560e01b815260006004820152602401610440565b6001600160a01b03831661085d57604051634a1406b160e11b815260006004820152602401610440565b6001600160a01b03808516600090815260016020908152604080832093871683529290522082905580156106ef57826001600160a01b0316846001600160a01b03167f8c5be1e5ebec7d5bd14f71427d1e84f3dd0314c0f7b2291e5b200ac8c7c3b925846040516108d091815260200190565b60405180910390a350505050565b6001600160a01b0383166109095780600260008282546108fe9190610b61565b9091555061097b9050565b6001600160a01b0383166000908152602081905260409020548181101561095c5760405163391434e360e21b81526001600160a01b03851660048201526024810182905260448101839052606401610440565b6001600160a01b03841660009081526020819052604090209082900390555b6001600160a01b038216610997576002805482900390556109b6565b6001600160a01b03821660009081526020819052604090208054820190555b816001600160a01b0316836001600160a01b03167fddf252ad1be2c89b69c2b068fc378daa952ba7f163c4a11628f55a4df523b3ef836040516109fb91815260200190565b60405180910390a3505050565b80356001600160a01b0381168114610a1f57600080fd5b919050565b600060208284031215610a3657600080fd5b61051882610a08565b60006020808352835180602085015260005b81811015610a6d57858101830151858201604001528201610a51565b506000604082860101526040601f19601f8301168501019250505092915050565b60008060408385031215610aa157600080fd5b610aaa83610a08565b946020939093013593505050565b600080600060608486031215610acd57600080fd5b610ad684610a08565b9250610ae460208501610a08565b9150604084013590509250925092565b60008060408385031215610b0757600080fd5b610b1083610a08565b9150610b1e60208401610a08565b90509250929050565b600181811c90821680610b3b57607f821691505b602082108103610b5b57634e487b7160e01b600052602260045260246000fd5b50919050565b8082018082111561039c57634e487b7160e01b600052601160045260246000fdfea264697066735822122099b4b09563ac49e8a99fc137f2373a2d2fec26cf0d515666f689817fe8ec9e9264736f6c63430008180033",
  "linkReferences": {},
  "deployedLinkReferences": {}
}